:020000040000FA
:100000001AEF00F0396A12007A82D9CF49F0DACFBC
:100010004AF0F3CF4BF0F4CF4CF0F2B4A3EC0CF079
:100020004CC0F4FF4BC0F3FF4AC0DAFF49C0D9FF10
:100030007A92110054EF0CF0656E12D13F5007E137
:10004000425005E1060E36D9BDEC0DF021D13F043A
:1000500003E0040E3F1823E13F0402E13E5005E0B7
:10006000040E3F1807E13D0405E1020E23D9BDEC63
:100070000DF00ED13F0402E13E0407E0040E3F18EC
:1000800001E006D13D5001E003D145C058F0010E1A
:10009000596EBDEC0DF0400410EC0DF0F9D04204A7
:1000A00001E0F6D0030E24EC0FF0F2D0420401E0A0
:1000B000EFD0050E24EC0FF0EBD0420401E0E8D0C5
:1000C000060E24EC0FF0E4D03F5008E1425006E168
:1000D000060E586EF3D8BDEC0DF0DAD03F0403E005
:1000E000040E3F1824E13F0402E13E5005E0040EF7
:1000F0003F1809E13D0407E1020E586E596E010EEA
:10010000BDEC0DF0C5D03F0402E13E0407E0040E53
:100110003F1801E0BDD03D5001E0BAD045C058F0D5
:10012000CDD8BDEC0DF0400410EC0DF0B1D0420480
:1001300001E0AED0040E24EC0FF0AAD03F501AE13B
:10014000425018E140C03FF0020E3F187EE16E0EB3
:10015000536E010E546E050E556E010E566ED0ECA8
:1001600004F0000E536E010E546E556A566AD0ECC0
:1001700004F06BD03F042EE13E5011E13E5002E10D
:1001800040C03EF03E0404E1400410EC0DF05DD0B0
:10019000020E3E185AE1455010EC0DF056D03E04C8
:1001A00010E1400410EC0DF016EC0FF0010E24EC01
:1001B0000FF0010E426E71D88DEC0EF03EEC0FF098
:1001C00044D0020E3E1841E13C5001E1452A16ECB4
:1001D0000FF03BD0040E3F181BE13D5006E1010E2D
:1001E0003D6E400410EC0DF030D03C502EE13C5000
:1001F00002E140C03CF03C0404E1010E3F6E020EFF
:100200003E6E020E3C1821E1A5EC0BF04506DFD74F
:10021000060E3F181AE1666A676A6650E00FD96EEB
:10022000DA6A6650E50FE16EE26ADFCFE7FF664A01
:10023000672A67BEF2D7675003E1050E665CEDE3FF
:10024000010E3B6E2AEC0FF0C2D7010E406E1BEC84
:100250000AF01ED0010E406E426A16EC0FF0F7D77E
:100260006550636E646A645013E16350230AF2E0E0
:10027000090A01E163D7180A01E1E0D6060A01E1A3
:1002800015D7020A01E119D70E0A01E11DD7010AAB
:1002900062C060F0655097EF09F0300E036E03C046
:1002A00002F002C001F001C006F006C005F005C072
:1002B00004F0300C586E010E596E010C020E596E8E
:1002C000010C285014E101017851FEEC0BF0EAD842
:1002D00068C064F069C065F06AC066F06BC067F022
:1002E000E4EC06F02804D8B46DC021F012002950C7
:1002F0007AEC0EF04E5004E13F0E4D5CD8A0120097
:10030000100E21608ED0030E3F1803E0020E3F183E
:1003100042E1556A21504DEC09F0B0D89DD8F76400
:1003200003D00800F55001D0A3D8000931E0030E36
:100330003F180BE1A3D890D8F76403D00800F5501C
:1003400001D096D82AEC0CF01FD0A4D86FBE05D0EF
:100350006F501AE10B0E6E5C17E22D500B0D6E0EF6
:100360006E6E010E6F6EF3506E26F4506F222150A8
:100370006E26000E6F2220506E24D96E000E6F2064
:10038000DA6EDF502AEC0CF0200E2AEC0CF003D0D1
:10039000200E2AEC0CF0010E556E21504DEC09F0A8
:1003A00073D85AD8F76403D00800F55001D060D84C
:1003B000000911E0020E3F180EE066D84DD8F76430
:1003C00003D00800F55001D053D82AEC0CF0200ED1
:1003D0002AEC0CF024D05ED86FBE05D06F500DE132
:1003E0000F0E6E5C0AE2020E3F1807E12150EA0F81
:1003F00020245FD82AEC0CF012D0200E2AEC0CF04E
:1004000049D8110E6E186F100AE12D2A2D5009ECF3
:100410000AF0F420DA6EDF50FEEC0BF043D8212A0C
:1004200018D020506E6E6F6AF00E706E71686C504E
:10043000726E736A70507226715073226E50721809
:1004400005E16F50731802E1206A01D0202A6DC0C7
:1004500021F02950AFEF0EF06F6E20506E26000E87
:100460006F226EC0F6FF6FC0F7FFF86A010E120030
:10047000F6CFE9FFF7CFEAFFEF50120021506824D2
:100480006E6E000E6920120021506A246E6E000EFE
:100490006B201200205021C06EF06F6A6E26000E95
:1004A0006F22000C01C0F6F002C0F7F003C0F8F0B4
:1004B0001200D96EDA6ADF5012003F5025E1425037
:1004C00023E1400403E0020E401808E1EA0E746ED6
:1004D0001F0E756ED60E766E1F0E32D0030E4018AC
:1004E00003E0040E401808E1C20E746E1F0E756E14
:1004F000AE0E766E1F0E24D09A0E746E1F0E756EA1
:10050000860E766E1F0E1CD03F0403E0040E3F18CB
:100510003DE13F040AE13E5008E1720E746E1F0E89
:10052000756E5E0E766E1F0E0BD03F0410E1020E4C
:100530003E180DE13C5007E1220E746E1F0E2AD0CA
:10054000776E3EEF03F00E0E746E1F0E23D03F0445
:1005500002E13E0404E0040E3F18D8A41200040E89
:100560003F180CE13D040AE13C5008E14A0E746E6C
:100570001F0E756E360E766E1F0EE2D773D8F420FE
:10058000756E77D8766E010EF420DAD7020E3F181A
:1005900006E108D0756EFE0E766E1F0ED1D7030EE3
:1005A0003F1804E1FE0E746E1F0EF4D7050E3F18BF
:1005B0000CE13B04D8A41200FA0E746E1E0E756E88
:1005C000E50E766E776A3EEF03F0060E3F1808E1FF
:1005D000E60E746E1E0E756ED20E766E1E0EB0D7BF
:1005E00042040DE1430402E13DD803D042D8746EC9
:1005F000010EF420756EAA0E766E1E0EA1D7020EA5
:100600004218D8A41200235005E11BEC0AF0010E99
:10061000236E010CBE0E746E1E0E756EEA0E766EA3
:10062000776A3EEC03F0030E246013D02450070FCA
:1006300012D841EC0EF0010E226E24500C0F5E6EAB
:100640002450010F59EC02F041EC0EF0226A242AEA
:100650001200246A12005E6E2450040FD96EDA6A0A
:10066000DF50120044500B0D6E0EF324746E010E19
:10067000120044500B0D000EF3241200100E7424CF
:10068000786E000E7520B1D8F76403D00800F550DD
:1006900002D038EC02F0000915E1100E7624786ED5
:1006A000000E7720A2D8F76403D00800F55002D0DE
:1006B00038EC02F0000906E1030E3F1803E0020ED9
:1006C0003F1805E1420403E0050E3F180BE174C03A
:1006D00064F075C065F076C066F077C067F0E4EC52
:1006E00006F033D03F500FE174C068F075C069F078
:1006F00076C06AF077C06BF0140E6C6E030E6D6EF0
:1007000061EC01F022D0020E3F180BE180D8EA0E16
:100710006A6E6B6A1F0E6C6E000E6D6E61EC01F0FE
:1007200014D0030E3F1811E172D8000E6A6E010E4C
:100730006B6E45C078F0D89078327828110DF3CFE1
:100740006CF0000E6D6E61EC01F02804D8A412006C
:100750002650D8A4120040A00DD027500BE152D84B
:10076000606A010E616E73EC0BF0000E556A4DEC81
:1007700009F02CD040A00DD027040BE143D8010E86
:10078000606E616E73EC0BF0556A010E4DEC09F072
:100790001DD040B00DD027500BE12FD8606A616AA0
:1007A00073EC0BF0010E556E000E4DEC09F00ED0FF
:1007B00040B00CD027040AE120D8010E606E616AB7
:1007C00073EC0BF0010E556E4DEC09F0030E276033
:1007D00023D0A70E2724F66EF76A1E0EC7EC04F08E
:1007E0002AEC0CF0272A120017D0796E78C0F6FF99
:1007F00079C0F7FFF86A010E120074C05EF075C090
:100800005FF0120076C05EF077C05FF012006E0EEF
:10081000686E010E696E1200010E266E010C686E84
:10082000390401E0AFD02D5003E12B06010E2D6EEF
:10083000300E681804E1AFD81CEC00F08ED0310EF9
:10084000681804E1A8D81CEC00F087D0320E6818B4
:100850000EE168500DEC0FF02BC062F0A30E2A24BD
:10086000F66EF76A1E0E93D81CEC00F076D0330EAD
:1008700068180EE168500DEC0FF02BC062F09F0E6F
:100880002A24F66EF76A1E0E82D81CEC00F065D0A2
:10089000340E68180EE168500DEC0FF02BC062F0BA
:1008A0009B0E2A24F66EF76A1E0E71D81CEC00F01F
:1008B00054D0350E68180EE168500DEC0FF02BC0C7
:1008C00062F0970E2A24F66EF76A1E0E60D81CECB2
:1008D00000F043D0360E68180EE168500DEC0FF0B2
:1008E0002BC062F0930E2A24F66EF76A1E0E4FD8C4
:1008F0001CEC00F032D0370E68180EE168500DEC99
:100900000FF02BC062F08A0E2A24F66EF76A1E0ED4
:100910003ED81CEC00F021D0380E68180EE168506B
:100920000DEC0FF02BC062F08F0E2A24F66EF76AE2
:100930001E0E2DD81CEC00F010D0390E68180DE1F9
:1009400068500DEC0FF02BC062F0850E2A24F66E75
:10095000F76A1E0E1CD81CEC00F068C02CF0000ECC
:10096000AFEC0EF0230E681804E02A0E6818D8A425
:100970001200000E1EEC0FF00ED81CEC00F02D6AD9
:100980002B6A12002BC062F068501CEF00F0F722B7
:100990000800F55012002B2A2BC062F0685012009C
:1009A00055C05DF05E6A6FD05F6A606A86D854ECAD
:1009B0000EF07AD89AD895D888D854EC0EF0A0D8F2
:1009C000E26EDE50E65C54E25B6A5C6A7ED854EC10
:1009D0000EF06E0E576E010E586E4D5057264E504B
:1009E000582287D8DF50196E68D854EC0EF05CD8C6
:1009F00080D86BD854EC0EF06E0E596E010E5A6E04
:100A00004D5059264E505A225B505924E16E5C508D
:100A10005A2063D852D854EC0EF046D86AD819C080
:100A2000DFFF5B4A5C2A5CBED1D75C5003E10A0E53
:100A30005B5CCCE34AD854EC0EF068D8DF50186EFB
:100A40003CD854EC0EF030D850D84BD83ED854ECAB
:100A50000EF056D842D831D854EC0EF025D845D8EF
:100A6000000E5820DA6E18C0DFFF5D6A5E6A09D09A
:100A70005F4A602A60BE9AD7605003E1050E5F5C52
:100A800095E35D4A5E2A5650576E586A090E5726FE
:100A9000000E582257505D5C5E50800A596E5850C7
:100AA000800A595881E3120053C057F054C058F0DF
:100AB0004D5057264E50582212005DC04DF05EC07A
:100AC0004EF0506A0B0E4F6E0B0C5FC04DF060C0C5
:100AD0004EF0506A0B0E4F6E0B0CE26EDFCFE7FF4D
:100AE0001200000E5820DA6E12000A0E5724D96E3A
:100AF00012005B505724D96E5C505820DA6E1200F9
:100B0000780E4D24E16E010E4E201200780E4D2419
:100B1000D96E010E4E20DA6E1200430426E1546AAB
:100B2000556A4CD872D844500B0D6E0E526E010EA1
:100B300073D854505224E16E5550532062D83ED899
:100B400064D8000EDF6E544A552A55BEEAD7555078
:100B500003E10A0E545CE5E331D84CD844500B0D48
:100B6000780EF324E16E010E23D0566A576A31D80D
:100B700044500B0D000E526E010E4ED856505224AA
:100B8000E16E575053203DD824D8000EDF6E564AF0
:100B9000572A57BEECD7575003E10A0E565CE7E3DD
:100BA0000DD828D844500B0D0A0EF324E16E010E27
:100BB000F42027D803D81ED8DF6A000C4F500B0D45
:100BC0004DC050F04EC051F0F3505026F450512219
:100BD00012004F500B0D000E506E010E516EF3506F
:100BE0005026F450512256505024D96E575051205F
:100BF000DA6E12000A0E5024D96E000E5120DA6E01
:100C00001200E26EDFCFE7FF120054505024D96E7D
:100C100055505120DA6E1200536EF3505226F450A4
:100C2000532212005DD082AC12001F04D8A412001F
:100C3000829C000E82BC010E1F6E010E1A6E010C0A
:100C4000ACA2120039D00A0E1D601FD0430406E189
:100C500044500B0D6E0E4E6E010E05D044500B0D20
:100C6000000E4E6E010E4F6EF3504E26F4504F2282
:100C70001D504E24D96E000E4F20DA6EDF50AD6E3F
:100C80001D2A010E24EC0FF029D01D6A1E6A26D001
:100C900041502FEC0FF022D0550E2FEC0FF01ED04C
:100CA000440E2FEC0FF01AD04C0E2FEC0FF016D094
:100CB000520E2FEC0FF012D01E504E6E4F6A4F5056
:100CC0000DE14E50010ABFE0030AE2E0010AE4E050
:100CD000070AE6E0010AE8E0030AEAE01A6A1200FD
:100CE0001A504E6E4F6A4F50D8A412004E509BE0DF
:100CF000010AA6E012003F0402E13E0403E0040EF4
:100D00003F1827E1425025E1FD0E38D8F76403D0A3
:100D10000800F55001D052D800092DE0FD0E606E9C
:100D200061682750626E636A605062266150632278
:100D300063BE05D063501FE10A0E625C1CE2FD0E2B
:100D40001DD8F76403D00800F55001D011D02AEF68
:100D50000CF027D8F76403D00800F55001D02ED846
:100D6000000909E01ED8F76403D00800F55001D04F
:100D700025D82AEF0CF0200E2AEF0CF0606E616887
:100D800027505E24626E000E5F20636E6050622604
:100D90006150632262C0F6FF63C0F7FFF86A010E7C
:100DA000120027505E24606E000E5F20616E60C0EE
:100DB000F6FF61C0F7FFF86A010E1200F6CFE1FFFF
:100DC000F7CFE2FFE7501200100E27603AD028500C
:100DD0003DE1556A27504DEC09F0420403E10A0E4B
:100DE000276009D0020E3F1803E0030E3F1807E109
:100DF0000A0E276404D0200E2AEC0CF006D064C042
:100E00005EF065C05FF07BEC06F0A1EC0BF04DEC02
:100E100009F0050E3F1803E1050E276006D0030E0A
:100E20003F1807E10A0E276404D0200E2AEC0CF0CC
:100E300006D066C05EF067C05FF07BEC06F0272A44
:100E400005D0285003E1010E286E276A3A0411E10B
:100E500042040FE1050E25600BD02550020F5E6E97
:100E60002550E00F59EC02F041EC0EF0252A01D09C
:100E7000256A4204D8A41200030E246008D024502E
:100E80000C0F2BEC03F041EC0EF0242A1200246A24
:100E90001200596E02EC0EF00B6E0C6A59C031F064
:100EA00058C030F02E6A2F6A939A939893965A6A94
:100EB0005B6A4CD8640E566ED7EC0EF0030E9DECB8
:100EC0000AF044D8050E566ED7EC0EF0030E9DECDA
:100ED0000AF03CD8010E566ED7EC0EF0030E9DECD6
:100EE0000AF034D8010E566ED7EC0EF0020E9DECCF
:100EF0000AF02CD8010E566ED7EC0EF0280EBDEC81
:100F00000EF030EC0DF0080EBDEC0EF030EC0DF0F4
:100F1000010EBDEC0EF01AD8030E566ED7EC0EF093
:100F200030EC0DF0060EBDEC0EF030EC0DF00F0EB7
:100F3000BDEC0EF05A4A5B2A5BBEBBD75B5005E1A5
:100F4000020E5A5CD8B01200B4D712000BC054F095
:100F50000CC055F0576A1200330405E1320403E176
:100F6000310E346E310C330406E1020E321803E107
:100F7000320E346E320C330406E1030E321803E1F4
:100F8000330E346E330C020E331805E1320403E1E4
:100F9000340E346E340C020E331806E1020E321891
:100FA00003E1350E346E350C020E331806E1030EE4
:100FB000321803E1360E346E360C030E331805E199
:100FC000320403E1370E346E370C030E331806E19A
:100FD000020E321803E1380E346E380C030E33184B
:100FE00006E1030E321803E1390E346E390C040E9B
:100FF000331805E1320403E12A0E346E2A0C040E84
:10100000331806E1020E321803E1300E346E300C54
:10101000230E346E230C186A446A456A010E436E2F
:10102000576A586A556A566A36D854EC0EF06E0EF6
:10103000536E010E38D8DF6A2ED854EC0EF0000E35
:10104000536E010E30D8000EDF6E554A562A56BE3A
:10105000EBD7565003E10A0E555CE6E31CD854EC7E
:101060000EF086EC05F0DF6A16D854EC0EF00A0E8E
:101070004D24D96E010E4E20DA6E000EDF6E574AF7
:10108000582A58BECFD7585005E10A0E575CD8B041
:101090001200C8D7120057C04DF058C04EF0506A29
:1010A0000B0E4F6E0B0C546E4D5053264E50542267
:1010B00055505324D96E56505420DA6E1200420413
:1010C00042E0120013507AEC0EF04E5004E1640E30
:1010D0004D5CD8A01200C280C282010E116E010CBC
:1010E000C2B2FBD7C29012500EE1030EC36004D00F
:1010F000050E24EC0FF013D0010EC46410D0060EC0
:1011000024EC0FF00CD0030EC36003D024EC0FF0DE
:1011100006D0010EC46403D0040E24EC0FF0020EBE
:10112000116E020C125007E1C250C30B0409C26ECB
:10113000010E126E03D0C30EC216126A1350AFEC2A
:101140000EF0116A12001150546E556A5550D8A411
:1011500012005450B7E0010AC3E0030AE3E01200B2
:1011600039D016507AEC0EF098EC0AF0D8A01200A4
:10117000010E476E010C1650AFEC0EF0142A3B0E18
:10118000146404D0020E476E146A1200476A1200FB
:101190001BEC0AF0E80E4D6EE90E4E6E470E4F6ED8
:1011A000030E506EC9EF0CF024D8320EE56109D061
:1011B000390EE66102D0E62BE9D7E52B300EE66F5B
:1011C000E5D7330EE66101D0F6D7300EE66FE6C004
:1011D000E5F0DCD74750586E596A5950D8A4120030
:1011E0005850BFE0010AC7E0030AD2E0010ADCE080
:1011F0001200300E0001E96FE9C0E8F0300C30D089
:10120000000E4F6E4E6E516E43D8010E526E06D0D8
:1012100038D8506E536E010E526E020E546E05D0C9
:1012200030D836D8526E546E030E556EEEEF0CF079
:1012300037507AEC0EF04E5004E1960E4D5CD8A07B
:101240001200040E366E3750AFEF0EF0355005E049
:10125000ACEC07F034500FEC04F0356A366A12003B
:101260003650696E6A6A6A50D8A412006950C8E0A4
:10127000010ACEE0030AD4E0010ADAE0070AE6E058
:101280001200000E4F6E010E4E6E000E516E000CDD
:10129000010E506E000E536E000C5C6E30D0555037
:1012A00004E0596A400E586E02D0586A596A5C5080
:1012B00058245A6E000E59205B6E2ED05CC05AF036
:1012C0005B6A550402E1400E04D0020E551804E199
:1012D00030505A26000E0DD0030E55181DE1305027
:1012E000566E576A400E5626000E572256505A2602
:1012F00057505B2211D05CC05AF05B6A0DD0315060
:10130000566E576A5750F7E15650010AF4E0030A47
:10131000C6E0060AD3E0EFD730EC0DF05A50800952
:10132000BDEC0EF055C02FF05CC02EF01200616EC7
:101330003F0418E1020E3E18D8A41200010E396EC7
:101340002A0E6118D8B41200230E6118D8B4120006
:1013500060C05EF0615041EC0EF060C04DF0615035
:101360004FEF0DF0060E3F18D8A412002A0E611898
:1013700019E01AD861C0DFFF3850080F5E6E615067
:1013800041EC0EF0382A020E3818D8A412000CD8FE
:101390003A0EDF6E3850080F5E6E3A0E41EC0EF0DA
:1013A000382A1200386A12003850E00FD96EDA6A13
:1013B00012009EAA1200AECF1BF0410E1B1804E1D2
:1013C000050E1C26EBEF0DF0420E1B18D8A41200E0
:1013D000020E426E43040AE144501BD827D803E2B0
:1013E000445017D807D0445014D80AD018D81ED863
:1013F00006E215D8F420DA6E1CC0DFFF05D00FD846
:10140000F420DA6EDF501C6E1C50FEEC0BF01C6AF0
:1014100012000B0D780EF324D96E010E1200445009
:101420000B0D0A0EF324D96E010E1200F420DA6EB1
:101430001C50DE5C1200E3EC0EF039EC0FF038D8F3
:10144000206A216A3F040FE142500DE13E0403E1AE
:10145000030E276E030C020E3E18D8A4120034ECC3
:101460000FF00CEF04F0050E3F1804E1010E266E9C
:101470003B6E010C060E3F1802E10CEF04F0020E69
:101480003F1802E10CEF04F0030E3F1802E10CEFED
:1014900004F0420404E1010E266E3A6E010C020EC5
:1014A000421802E10CEF04F03F50D8B4236A120056
:1014B000256A266A276A286A120042042CE0120074
:1014C00015507AEC0EF034D8D8A01200010E466EFA
:1014D000010C1550AFEC0EF01BEC0AF0412A020E85
:1014E00024EC0FF0E30E4D6EE40E4E6E460E4F6E82
:1014F000020E506EC9EF0CF0416A300E0001E46F2D
:10150000E4C0E3F0E00E4D6EE10E4E6E460E4F6EFF
:10151000506AC9EF0CF04650586E596A5950D8A419
:1015200012005850CDE0010AD4E0030AE5E01200B1
:10153000E80E4D5C030E4E5812004E6E94962FD856
:101540008A8A4EA603D04D6A4D2A01D04D6A4D4677
:101550008B504D18FD0B4D188B6E4EA403D04D6A69
:101560004D2A01D04D6A8B504D18FE0B4D188B6ED5
:101570004EA203D04D6A4D2A01D04D6A17D8FB0BFD
:101580004D188B6E4EA003D04D6A4D2A01D04D6A86
:101590004D460CD8F70B4D188B6E8A9A1200949416
:1015A000949294908A968A988A8A12004D464D4663
:1015B0008B504D1812004E6E4EA603D04D6A4D2A28
:1015C00001D04D6A4D468B504D18FD0B4D188B6E5A
:1015D0004EA403D04D6A4D2A01D04D6A8B504D1850
:1015E000FE0B4D188B6E4EA203D04D6A4D2A01D0D2
:1015F0004D6A0FD8FB0B4D188B6E4EA003D04D6A71
:101600004D2A01D04D6A4D4604D8F70B4D188B6E0C
:1016100012004D464D468B504D1812004E6E4EAE88
:1016200003D04D6A4D2A01D04D6A4D468B504D185E
:10163000FD0B4D188B6E4EAC03D04D6A4D2A01D078
:101640004D6A8B504D18FE0B4D188B6E4EAA03D071
:101650004D6A4D2A01D04D6A0FD8FB0B4D188B6E89
:101660004EA803D04D6A4D2A01D04D6A4D4604D88C
:10167000F70B4D188B6E12004D464D468B504D1892
:10168000120042041AE0120023D87AEC0EF026D899
:10169000D8A012001050AFEC0EF08984010E0D6E30
:1016A000010C16D87AEC0EF019D8D8A01200105000
:1016B000AFEC0EF089940D6A12000D50546E556A0D
:1016C0005550D8A412005450DFE0010AEAE012009D
:1016D000D8900E30546E556A1050120054504D5C24
:1016E00055504E5812003F0402E13E0403E0040E40
:1016F0003F180DE1556A27504DEC09F0200E2AECF9
:101700000CF01FD84DEC09F0200E2AEF0CF061C050
:1017100055F060504DEC09F027505E24626E000ECB
:101720005F20636E62C0F6FF63C0F7FFF86A010EC8
:10173000F76403D00800F55002D038EC02F02AEF2D
:101740000CF0010E556E2750120045C058F0580697
:1017500058A00ED01DD85A505B100AE045C058F072
:10176000D89058325804176E000E4D6E010E0BD0F3
:101770000FD85B345B305D6E5A305C6E5C50176E18
:101780006E0E4D6E010E4E6E17C04FF08DEF05F0D0
:101790005868596845505A6E5B6A58505A265950D5
:1017A0005B221200F28CF28E88EC0DF0100E586E57
:1017B000020E49EC07F002EC00F003EC0FF07DECB8
:1017C0000CF00BEC08F0CBEC0EF067EC0EF0EEEC4E
:1017D0000EF09FEC0EF0FFEC08F05DEC02F0B0ECC8
:1017E00008F012EC06F05DEC0AF0D9EC09F05FECC1
:1017F00008F019EC0EF041EC0BF0EDD7516E0A0E2B
:10180000516007D0050E5118D8A41200350E036E92
:10181000350C51A002D0350E036E640E516008D015
:10182000300E016E13D8A3EC0DF0300F026E1200D3
:10183000C80E516008D00AD8A3EC0DF0260F026E36
:10184000310E016E310C320E016E320C0A0E4D6EED
:10185000515012005D6E30EC0DF05D506CEC0DF0EF
:101860002E2A030E311807E1130E2E64130C2E6A74
:101870002F2A030E09D0020E31180AE1270E2E641A
:10188000270C2E6A2F2A010E2F6409D02F6A07D049
:101890002F04D8A41200270E2E6401D02E6A2FC068
:1018A00055F02E504DEF09F0F20EF66E1D0EF76E4C
:1018B000000EF86E00EEEAF010EE14F00900F5CF1D
:1018C000EEFFE550E150FAE101EE00F0DC0EEE6AC9
:1018D000E806FDE100EE80F06A0EEE6AE806FDE142
:1018E00000EE01F0470EEE6AE806FDE17A907A928A
:1018F000000EF86E0001D2EF0BF002EC0EF0296E34
:101900002950AFEC0EF0246A58EC0AF02D6A3C6ABC
:101910003D6A3E6A3F6A010E406EF9EC08F0E8C08D
:10192000E6F0E6C0E5F03A0EE26FE2C0E7F0300E16
:1019300097EC0EF0010E3A6E3AC03BF0226A236A31
:10194000206A216A1200F294060ED66E094A0A2A0B
:10195000300E095C750E0A58D8A01200076A086A92
:1019600008BE05D0085012E1200E075C0FE20750B8
:1019700013EC0EF0DE0407E10750B7EC0EF009504F
:10198000DE5E0A50DD5A074A082AEAD7096A0A6A5F
:1019900012004E50D96EDA6A390EDF6009D04E500F
:1019A000D96EDA6ADF2A4F50D96EDA6ADF6A000C24
:1019B0004D50D96EDA6A350EDF600AD04D50D96EBF
:1019C000DA6ADF2A4E50D96EDA6A300EDF6EEBD754
:1019D0004F50D96EDA6A50C0DFFF120035501DE15A
:1019E0008350780B780A14E14EB002D08C9001D06D
:1019F0008C8050B002D08C9201D08C8252B002D038
:101A00008C9401D08C8454C036F055C032F0120052
:101A1000D4EC0DF0030E366E030C040E366E040C7F
:101A2000516E515018E051A010D0020E436E51502B
:101A30004D6E4E6A4D2A000E4E224E344E30506E80
:101A40004D304F6E4F04446E1200010E436ED8901D
:101A50005130446E1200010E436E51C044F0010C2F
:101A600094869484948294808A968A880B50AFECF2
:101A70000EF08A8A8A8A000E82B2010E546E8A9A09
:101A80008A9A8A8A8A8A8A9A8A9A0B507AEC0EF003
:101A90004D504E1001E012005450EBE11200506E18
:101AA000430406E144500B0D6E0E4E6E010E06D03F
:101AB00044500B0D000E4E6E010E00D04F6EF350D1
:101AC0004E26F4504F224D504E24D96E000E4F201A
:101AD000DA6E50C0DFFF12004F6E94969494949289
:101AE00094908A868A988A8A4F500EEC0BF00BD815
:101AF0004F50DBEC0AF000D08A8A8A9A948694844C
:101B00009482948012008A8A8A9A8A9A8A8A120017
:101B10004D6A4D5013EC0EF0DF6A4D2A1F0E4D64D6
:101B2000F8D7096A0A6AD38CD38AD398D58CD59A08
:101B3000D596D550F80B0109D56E060ED66ED58E0A
:101B4000F294F28A060C4E6E506A4D5014E0010E6B
:101B50004F6E03D0D8904D364F2A4DAEFBD7D8905C
:101B600050364D504E5C03E34D504E5E5080D89041
:101B70004D324F2EF4D7505012005A6E59040AE1DC
:101B80005A50401804E158C040F01BEF0AF04006DC
:101B90001BEF0AF05850401804E15AC040F01BEF08
:101BA0000AF0402A1BEF0AF03750AFEC0EF0010E9E
:101BB000356E83BC03D0040E336E040C83BA03D09D
:101BC000030E336E030C83B803D0020E336E020C87
:101BD000010E336E010C300E061803E1350E066E51
:101BE000350C300E066E390E056002D0052A390C10
:101BF000300E056E320E046002D0042A320C300E14
:101C0000046E300C4E6A05D04E2A200E4E1801E1AB
:101C1000FF0C4E5008D8DE04F7E04E5004D8010EF9
:101C2000DF6E4E501200030DF350820FD96EDA6A48
:101C300012000F507AEC0EF0D00E4D5C070E4E588D
:101C4000D8A012000F50AFEC0EF00A0E0E1801E1F2
:101C500002D00E2A1200010E0E6E010C000E7AEC5C
:101C60000EF0EF0E4D5C020E4E5802E313EF0FF034
:101C7000030E2A1802E12A6A12002A2A120013EF20
:101C80000FF05F6E020E421807E1225005E1556A1F
:101C90005E504DEC09F005D0010E556E5E504DECD6
:101CA00009F05F502AEF0CF04D504F02F3CF51F086
:101CB000F4CF52F04D505002F35052264E504F0286
:101CC000F350522651C04DF052C04EF01200D00ECB
:101CD0009412240EAC6E900EAB6E020EB86E190EFE
:101CE000AF6E1C6A1D6A1E6A1F6A416A426A4DEC29
:101CF00001F0300C516E09C052F00AC053F051503F
:101D0000B7EC0EF0DECF4FF0DDCF50F04F50525C0D
:101D10004D6E505053584E6E12001550AFEC0EF0F1
:101D2000300E000104D83A0EE26F466A1200E46FEA
:101D3000E4C0E3F0E3C0E1F0E1C0E0F0120002EC47
:101D40000EF0106E02EC0EF00F6E1050AFEC0EF0B5
:101D50000F50AFEC0EF0929489942BEF0EF04D6E75
:101D60004D5005D809C0DEFF0AC0DDFF1200030D8B
:101D7000F350800FD96EDA6A12004F6E9496CFEC52
:101D80000AF04F500EEC0BF083EC0DF04F50DBECF3
:101D90000AF07CEF0DF002EC0EF0166E1650AFEC70
:101DA0000EF002EC0EF0156E146A476A12005450E1
:101DB000AFEC0EF054507AEC0EF056504D5C57508C
:101DC0004E58F8E3120030EC0DF0010EBDEC0EF0B1
:101DD000A6EC07F0030E566ED7EF0EF0126A02EC77
:101DE0000EF0136E928092820D0EC16E890EC06E3F
:101DF000890C486967682073636F72653A20000038
:101E000000000000000002EC0EF0376E780E956EB8
:101E1000356A366A2D0E346E2D0C546E2C1803E183
:101E20002EEF0EF000D02A6A2B2A1200426A3A6A7C
:101E30003C6A3D6A3E6A396A3F6A12004D6E4D50F7
:101E400013EC0EF0DF6A000C4D6E010E1F6E4DC0DC
:101E50001EF0010C1650AFEC0EF0146A12004D6E1D
:101E60004DC0ADFF1E6A120030EC0DF00E0EBDEF3E
:101E70000EF030EC0DF00C0EBDEF0EF01350AFEF86
:021E80000EF062
:101E8400005758595A395051525337545556384DB2
:101E94004E4F364A4B4C3547484934444546334106
:101EA4004243322D3E2054202020202020207C201C
:101EB4005320000000000000000053636F72653A75
:101EC400200000000000000000000000000028487E
:101ED400483A4D4D293A000000000000000000007F
:101EE4000000456E746572204E65772054696D65F7
:101EF40000000000000043757272656E742054691E
:101F04006D650000000000000000456E74657220DD
:101F14004E6577204E616D65000000000000456E3F
:101F2400746572204E616D653A0000000000000087
:101F3400000044656C65746520557365720000008B
:101F440000000000000045646974204E616D650066
:101F540000000000000000000000322E204E6577D3
:101F64002055736572000000000000000000312E4F
:101F74002053656C6563742055736572000000001E
:101F84000000362E204D6F646966792074696D6592
:101F9400000000000000352E2053686F772074691C
:101FA4006D650000000000000000342E204D6F64B9
:101FB4006966792075736572730000000000332E22
:101FC4002053686F772075736572730000000000FA
:101FD4000000322E2053686F7720746F70203520F4
:101FE40073636F726573312E204E65772047616D80
:0C1FF4006500000000000000000000007C
:020000040020DA
:08000000FFFFFFFFFFFFFFFF00
:020000040030CA
:0E000000FF08191EFF8181FF03C003E00340CB
:00000001FF
