:020000040000FA
:04000000CFEF02F04C
:020004000000FA
:040008009BEF00F07A
:020018001100D5
:10002000CF411F57D1D6DE43DFFF92809296929840
:10003000896A9380938293849398F19E948094929A
:10004000948C948E956A1200D09EF28EF28CF28A75
:100050001200440E026E530E036E540E046E550EC3
:10006000056E410E066E490E076E520E086E4D0E5D
:10007000096E4E0E106E146A156A186A196A306A93
:10008000316A326A336A346A356A376A426A436A65
:10009000466A456A446A476A496A506A546A536ABA
:1000A000556A0D0E416EFF0E386E0A0E396E2D0E1A
:1000B000406E1200F86AF76A200EF66E0800F5CF5F
:1000C0008CFF1200240EAC6E900EAB6E020EB86E5A
:1000D000FF0EAF6E1200910ED56E3C0ED76EB00EB5
:1000E000D66E1200010EC26E0E0EC16E090EC06EEB
:1000F000120040C0A8FFA684F29E550EA76EAA0E5D
:10010000A76EA682A6B282EF00F0F28EA694A92A6C
:10011000382E79EF00F01200E96A010EEA6E40C055
:10012000EEFF472AC80E47648FEF00F0E96A010E20
:10013000EA6E476A1200F2B49FEF00F011003C0E25
:10014000D76EB00ED66EF294172A8A88A50E116E5D
:100150000A0E126E112EAAEF00F0A50E116E122ECD
:10016000AAEF00F015B005EC02F08A9855B0BDEC8E
:1001700000F01100476AE96A1200C8EC00F0472A53
:10018000C80E4760BAEC00F019C0EEFF49681200D3
:10019000196A8B82200E006E002ECCEF00F08B923D
:1001A000D3EC00F01200420E116E6E0E126E112E84
:1001B000D7EF00F0420E116E122ED7EF00F082A0A2
:1001C0001200C00E016E012EE3EF00F0192ADFEFDE
:1001D00000F0176A0A0E1762EAEF00F01200336EA1
:1001E000F86AF76A200EF66EF62A332EF4EF00F066
:1001F0000800F5CF8CFF120039C0ADFFCBEC02F048
:1002000041C0ADFFCBEC02F01200000EEFEC00F0AD
:100210005068FCEC00F0346A366A000EA96E9EAAA3
:100220000FEF01F01CEC01F021EC01F036A026EFFD
:1002300001F0FCEC00F01200AE5041621200366892
:100240001200780E3462120036681200342AAECFE3
:10025000ADFFCBEC02F0AECFA8FFA684F29E550E08
:10026000A76EAA0EA76EA682A6B234EF01F0F28E98
:10027000A694A92A0FEF01F0010EEFEC00F050A0B8
:100280001200FCEC00F04AEC01F0FCEC00F05AEC3F
:1002900001F01200000EA96EA69EA69C34C035F097
:1002A000A680A8CFADFFCBEC02F0A92A352E50EFE7
:1002B00001F01200000E47641200486A48C0E9FFCE
:1002C000010EEA6EEECF42F0482A98EC01F043C0EE
:1002D00044F0B3EC01F04750486274EC01F0475031
:1002E000486262EF01F0120040C0ADFFCBEC02F0BB
:1002F0001200020EEFEC00F0FCEC00F049A092EFCF
:1003000001F0470647C0E9FF010EEA6EEECF42F06A
:10031000472A98EC01F043C044F0B3EC01F0FCEC48
:1003200000F0120040C0ADFFCBEC02F08FEF01F007
:1003300042C043F0466A456A446A640E4364A8EFCB
:1003400001F0640E435E462A650E4360A1EF01F0A2
:10035000090E436412000A0E435E452A0A0E4360EA
:10036000ABEF01F01200300E462646C0ADFFCBECDD
:1003700002F0300E452645C0ADFFCBEC02F0300E4A
:10038000442644C0ADFFCBEC02F01200030EEFECAC
:1003900000F081A010EC02F081A21FEC02F081A419
:1003A0004BEC02F09EAAC9EF01F087EF02F0040EB9
:1003B000EFEC00F0C282C2B2DBEF01F02CEC02F0F5
:1003C00081A44BEC02F09EAADAEF01F087EF02F075
:1003D000050EEFEC00F015800A0EC06EC282C2B2AC
:1003E000EFEF01F0C4CF30F03042304230421F0E08
:1003F0003016050E3002F3CF14F081A44BEC02F05E
:100400009EAAEBEF01F087EF02F014C016F0240E65
:10041000136E132E09EF02F0162E07EF02F01200F2
:10042000E9EC00F0316A1568B00E14601200142A6D
:10043000142A142A142A142A1200156A1200E9EC4C
:1004400000F0326A040E14641DEF02F01406140664
:100450001406140614061200C80EC4603168320E69
:10046000C4643268800EC462120031B010EC02F035
:1004700032B01FEC02F01200060EEFEC00F089869D
:100480008998546A556A46EC02F0120053B2BDECEA
:1004900000F053681200E9EC00F053B2BDEC00F03C
:1004A00054B262EC02F01200070EEFEC00F0898605
:1004B0008988536A5DEC02F0120054B262EC02F0DB
:1004C0005468120055B267EF02F055681200556A81
:1004D00066EF02F0080EEFEC00F0146A156A516A3C
:1004E000526A476AE96ABDEC00F01568142A515057
:1004F000196082EC02F0B40E146273EF02F052C085
:1005000014F0120019C051F014C052F01200AECF16
:10051000ADFFAE500218D8B4AECF18F0AE500318ED
:10052000D8B4AECF18F0AE500418D8B4AECF18F08F
:10053000AE500518D8B43CEC02F0AE500618D8B452
:1005400054EC02F0AE500718D8B405EC01F0AE50F0
:100550000818D8B43CEC01F0AE500918D8B479ECC6
:1005600001F0AE501018D8B46AEC02F0185002181E
:10057000D8B4C6EF01F018500318D8B4D7EF01F083
:1005800018500418D8B4E8EF01F012009EAAC6EF84
:1005900002F087EC02F0ACA2CBEF02F0120015ECF7
:1005A00000F024EC00F06BEC00F029EC00F05AECC9
:1005B00000F062EC00F072EC00F08CEC00F079ECF2
:1005C00000F03CEC02F002C018F0C6EC02F0CBECFC
:0605D00002F0E5EF02F06D
:020000040030CA
:0100010006F8
:010003001EDE
:010005008179
:010006008178
:00000001FF
