:020000040000FA
:04000000F3EF02F028
:020004000000FA
:04000800AFEF00F066
:020018001100D5
:100020003F38377692809282929492969298929AE2
:10003000896A938093829384939693988A96939AED
:10004000F19E946A8B6A956A8C6A969096929694C1
:100050008D6A1200D09EF28EF28CF28A1200000E8F
:10006000016E000E026E010E036E020E046E030E90
:10007000056E066A096A196A166A126A116A146AB2
:10008000136A186A296A326A336A346A356A376AC7
:10009000386A396A426A406A416A2D0E306E12002F
:1000A000010EC26E0E0EC16E090EC06E1200910ED0
:1000B000D56E3C0ED76EB00ED66E1200F86AF76A97
:1000C000200EF66E0800F5CF8CFF1200010E1762AD
:1000D0008D82000E17628D841200FA0E1452050EE6
:1000E000135213C015F08D82E8EF00F066EC00F0BB
:1000F000BE0E1452410E135213C015F0E8EF00F07B
:1001000066EC00F07F0E1452800E135213C015F0EF
:10011000E8EF00F066EC00F03F0E1452C00E1352F0
:1001200013C015F0E8EF00F0280E106E102E96EFB9
:1001300000F0092E94EF00F012008978396A12005D
:10014000190E39609DEC00F00C0E41601200A0EF1A
:1001500000F0372A346A1200412A406A1200F2B4D1
:10016000B3EF00F011003C0ED76EB00ED66EF294D5
:10017000342A402A312A322A332A392AFA0E3460A4
:10018000A9EC00F0FA0E4060ACEC00F00C0E4160FF
:10019000A0EC00F0A50E116E0A0E126E8A88112EC8
:1001A000CFEF00F0A50E116E122ECFEF00F094EC01
:1001B00000F08A98030E16608AEF00F0020E1660B7
:1001C00080EF00F0010E166076EF00F06DEF00F0AA
:1001D000132EE8EF00F01552136E142EE8EF00F026
:1001E0008D928D9411008A7A37C0EEFF182A34C0A0
:1001F000EEFF182A07C0EEFF182A08C0EEFF182AE3
:10020000D66A346A376A780E1860ADEF02F01200D1
:100210004FEC01F0EECF38F0292AEECF35F0292A45
:10022000EECF07F0292AEECF08F0292A346A376A80
:10023000D66A3850376219EF01F0355034621DEF3D
:1002400001F08A7A5CEC02F005EC02F0DDEC01F0E2
:100250001850296208EF01F0120001500260BAEF55
:1002600002F00360ADEF02F00460C7EF02F0DDEFD3
:1002700002F09DEC02F0346A376AD66AC7EF02F0EA
:100280000150026039EF01F00360BAEF02F0ADEF08
:1002900002F00150026240EF01F0DDEF02F0416A2E
:1002A000406A316AD66A010E316253EF01F01200E2
:1002B0004FEC01F081A05AEF01F04FEC01F02DEF6F
:1002C00001F0326A4FEC01F081A264EF01F04FECD3
:1002D00001F0320E326049EF01F040EF01F04FECD7
:1002E00001F081A471EF01F04FEC01F0F3EC00F0AC
:1002F0001200406A416A1200406A416A8B6A8D901E
:100300008A9612000B0E41648998000E166279ECF1
:1003100001F0000E176E000E166EF7EF01F00B0ED7
:1003200041648988010E166279EC01F0000E176EA7
:10033000010E166EF7EF01F00B0E41648988020E74
:10034000166279EC01F0000E176E020E166EF7EFD2
:1003500001F00B0E41648988030E166279EC01F0FE
:10036000000E176E030E166EF7EF01F00B0E4164D0
:100370008998010E166279EC01F0010E176E010EDC
:10038000166EF7EF01F00B0E41648998020E1662AB
:1003900079EC01F0010E176E020E166EF7EF01F008
:1003A0000B0E41648998030E166279EC01F0010E80
:1003B000176E030E166EF7EF01F0010E0864D0EF12
:1003C00001F03E0E0864C3EF01F07B0E0864B6EF47
:1003D00001F0FF0E0860A9EF01F0C20E08609CEF6B
:1003E00001F0870E08608FEF01F082EF01F016C078
:1003F00019F0F86AF76A200EF66EF62A192EFDEF4C
:1004000001F00800F5CF8CFF120007C006F006428D
:10041000064206421F0E0616050E0602F3CF09F02D
:100420001200000E42627CEC01F08B888B8A000E79
:10043000426E1200010E42627CEC01F08B80010ED4
:10044000426E1200020E42627CEC01F08B82020EC0
:10045000426E1200030E42627CEC01F08B84030EAC
:10046000426E1200010E42627CEC01F08B86010E9E
:10047000426E1200020E42627CEC01F08B8C020E86
:10048000426E1200030E42627CEC01F08B8E030E72
:10049000426E1200010E42627CEC01F08D80010E72
:1004A000426E1200020E42627CEC01F00A0E076EF0
:1004B0008A86020E426E1200010E076452EF02F0AD
:1004C0000A0E076452EF02F0210E07644AEF02F0B1
:1004D000410E076442EF02F0610E07643AEF02F04A
:1004E000FF0E07601AEF02F0E10E076022EF02F044
:1004F000C10E07602AEF02F0A10E076032EF02F092
:10050000800E076211EF02F01200010EC26EC2826D
:10051000C2B288EF02F0C4CF07F05CEC02F005EC49
:1005200002F01200050EC26EC282C2B295EF02F056
:10053000C4CF08F0DDEC01F01200186AE96A010E80
:10054000EA6E30C0EEFF182A780E1864A1EF02F0B0
:10055000E96A010EEA6E186A1200899A89968984FE
:1005600002C001F085EC02F092EC02F0EBEC02F03C
:10057000ADEF02F0899A8994898603C001F085EC79
:1005800002F0DDEC01F0EBEC02F0BAEF02F089943E
:100590008996898A04C001F085EC02F092EC02F0A1
:1005A00081A46FEC01F0406A416A0C0E3760ADEF38
:1005B00002F0EBEC02F0C7EF02F089848986898AA9
:1005C000296A29C0E9FF010EEA6E000E186208ECE4
:1005D00001F0ADEF02F0326A81A058EF01F081A284
:1005E00061EF01F0120012EC00F02AEC00F02FECA9
:1005F00000F050EC00F057EC00F05EEC00F09DECE9
:0E06000002F0ADEF02F0EBEC02F003EF03F0BE
:020000040030CA
:0100010006F8
:010003001EDE
:010005008179
:010006008178
:00000001FF
