:020000040000FA
:040000001AEF00F003
:100008007482D9CF61F0DACF62F0F3CF63F0F4CF26
:1000180064F0F2B41CEC09F064C0F4FF63C0F3FFB1
:1000280062C0DAFF61C0D9FF749211000DEF0BF0C6
:100038000101BA6F040E2060A3D01FC06CF0BA5142
:10004800B8EC0AF07CD020C0B5F1140EB66F1E5083
:10005800840FBCD819EC08F08ED020C0B5F1020E80
:10006800B66F1E50800FB2D819EC08F084D020C0AB
:10007800B5F1030EB66F0B0E1E24F66EF76A1F0E4F
:10008800A1D819EC08F077D020C0B5F1040EB66FEE
:10009800070E1E24F66EF76A1F0E94D819EC08F0A6
:1000A8006AD020C0B5F1050EB66F030E1E24F66E99
:1000B800F76A1F0E87D819EC08F05DD020C0B5F19B
:1000C800060EB66FFF0E1E24F66EF76A1E0E7AD85D
:1000D80019EC08F050D020C0B5F1070EB66FFB0E32
:1000E8001E24F66EF76A1E0E6DD819EC08F043D080
:1000F80020C0B5F1080EB66FF20E1E24F66EF76A30
:100108001E0E60D819EC08F036D020C0B5F10A0EE2
:10011800B66FF70E1E24F66EF76A1E0E53D819EC4A
:1001280008F029D020C0B5F10C0EB66FED0E1E24D4
:10013800F66EF76A1E0E46D819EC08F01CD00101BD
:10014800BA51B86FB96BB95116E1B851300A01E12B
:100158007AD7010A82E0030A8AE0010A95E0070AD1
:10016800A0E0010AABE0030AB6E0010AC1E00F0A09
:10017800CCE0010AD7E0BAC11FF021501AEC0EF00A
:100188002A0E0101BA190BE1206A0A0E1F6E20C05F
:10019800B5F10F0EB66FBA5119EC08F00FD0230E57
:1001A800BA190CE120C0B5F1160EB66FBA5119ECA8
:1001B80008F0030E201802E1C1EC0DF00101BA515C
:1001C8002AEF06F0F7220800F5501200D96EDA6A15
:1001D800DF501200100E3A60100C030E3A600FD078
:1001E8006D6A3A50E5EC06F03A500101B525D96E32
:1001F800000EB621DA6EDF50E3EC0AF040D0030EB1
:100208003A1808E16D6A3A50E5EC06F0200EE3EC86
:100218000AF035D0040E3A1808E16D6A3A50E5EC58
:1002280006F02D0EE3EC0AF02AD0050E3A1808E184
:100238006D6A3A50E5EC06F0200EE3EC0AF01FD0A8
:100248000B0E3A6015D06D6A3A50E5EC06F03A505C
:100258000101B725BD6F000EB821BE6FFA0EBD258E
:10026800D96EFF0EBE21DA6EDF50E3EC0AF007D03C
:100278006D6A3A50E5EC06F0200EE3EC0AF0B9C1DD
:10028800F6FFBAC1F7FFF86A010EF76403D0080059
:10029800F55002D045EC05F0490A65E1030E3A60D5
:1002A8001AD063D8E5EC06F03A500101B925BD6FC4
:1002B800000EBA21BE6FBDC1F6FFBEC1F7FFF86AD6
:1002C800010EF76403D00800F55002D045EC05F0A4
:1002D800E3EC0AF048D0030E3A1807E146D8E5ECFB
:1002E80006F0200EE3EC0AF03ED0040E3A1807E1BF
:1002F8003CD8E5EC06F02D0EE3EC0AF034D0050E00
:100308003A1807E132D8E5EC06F0200EE3EC0AF0E3
:100318002AD00B0E3A6021D028D8E5EC06F0FA0E68
:100328000101BD6FBE693A50BB25BF6F000EBC21ED
:10033800C06FBD51BF27BE51C023BFC1F6FFC0C1AA
:10034800F7FFF86A010EF76403D00800F55002D0F1
:1003580045EC05F0E3EC0AF006D007D8E5EC06F02A
:10036800200EE3EC0AF03A2A1200010E6D6E3A50A4
:10037800120095D0DE0EB56F1F0E3DD0C70EB56FBB
:100388001F0EB66FB00EB76F1F0E1FD0B00EB56F31
:100398001F0EB66F990EB76F1F0E17D0990EB56F57
:1003A8001F0EB66F820EB76F1F0E0FD0820EB56F7D
:1003B8001F0EB66F6B0EB76F1F0E07D06B0EB56FA3
:1003C8001F0EB66F540EB76F1F0EB86F21EF03F0F4
:1003D800445093D8D8A41200C151D0E0010AD6E005
:1003E800030ADCE0010AE2E0070AD8A41200E6D713
:1003F8003D0EB56F1F0EB66FCD0E35D0395005E1E5
:10040800B60EB56FB66B9F0E2ED0070E431809E1D6
:100418005BD8F50EB96F1F0EBA6FF50EBB6F1F0EC6
:1004280010D052D843500A0D6A0EF324B96F010E4A
:10043800F420BA6F43500A0D6E0EF324BB6F010E01
:10044800F420BC6FEEEF00F0260EB56F1F0EB66FEE
:10045800FD0EB76F1F0EB86FD3EF04F00F0EB56F18
:100468001F0EB66FE90EB76FB86BD3EF04F0880EA6
:10047800B56FB66BCD0EB76FB86BD3EC04F03C50CC
:1004880057EC0CF0400E655C1F0E6658D8A01200A1
:1004980011EC0EF0300E000128D83B6A12003B50D8
:1004A80001012BD8D8A41200C15101E163D7010A78
:1004B8008FE0030A9DE0010AA1E0070AC5E0010AEE
:1004C800CDE0030AD4E0120043500A0D600EF32475
:1004D800B56F010EF420B66F43500A0D640EF32475
:1004E800B76F010EF420B86F1200ED6FEDC0ECF09D
:1004F800ECC0EAF0EAC0E9F01200C16FC26BC25169
:10050800120075D02A50D8B41200010E226E010CC8
:100518002A6A19D0ACA225D029C0ADFF020E11D08D
:10052800ACA21FD029C0ADFF030E0BD0ACA219D0CE
:1005380026C0ADFF226A15D0ACA213D029C0ADFFEA
:10054800040E226E0ED02950B06FB16BB15109E183
:10055800B051440AE5E0140AEFE0030AE7E0070AAD
:10056800D9E02850D8B41200050E46600CD0ACA2D1
:10057800050C465006E04650E40FD96EDA6ADF50A3
:10058800AD6E462A1200010E08EC0EF0466A286A83
:10059800226A1200060E466016D0ACA2060C48D895
:1005A800DF50AD6E5BEC0EF00101B26F41D8B25175
:1005B80039D8040EB0272DD8E16E000EB121E26EB5
:1005C800DFCFE7FFDED7466A226A12002550D8B48B
:1005D8001200030E4660F7D7ACA2030C265022D8AF
:1005E800B02B17D8D96E000EB121DA6EC8D72250B9
:1005F8000101B06FB16BB151D8A41200B05182E0C3
:10060800010A86E0030AADE0010AC4E0070ADEE059
:100618001200000EB123F350B027F450B123465016
:10062800B02512000A0D600EB06F010EB16F1200F6
:100638004650500FD96EDA6A12003D5057EC0CF054
:10064800665004E1FC0E655CD8A01200100E3A60FA
:1006580063D06D6A3A50E5EC06F03A50010174D85F
:1006680062D808E0345006E13A506ED85CD8E3EC22
:100678000AF019D0345005E1010E346E200EE3EC77
:100688000AF037503A5C07E23A5001015DD84BD87E
:10069800E3EC0AF008D03650010156D8726E59D8EA
:1006A800E3EC0AF0362AB9EC01F0E5EC06F03A5032
:1006B800010145D838D808E0335006E13A503FD810
:1006C80032D8E3EC0AF019D0335005E1010E336E4D
:1006D800200EE3EC0AF037503A5C07E23A50010189
:1006E8002ED821D8E3EC0AF008D03550010127D8DC
:1006F800726E2FD8E3EC0AF0352A3850716E726AA0
:10070800712A000E7222170E7118721003E1386AEE
:10071800170E376E3A2A04D0382A22D83A6A370692
:100728003D501AEF0EF0726E38507126000E72228C
:1007380071C0F6FF72C0F7FF0800F5501200B72528
:10074800716E000EB8211200B525716E000EB6212B
:10075800120071C0F6FF72C0F7FF0800F5501200D2
:10076800336A346A356A366A1200326A2F6A020EB0
:10077800306E300E2C6E000E33EC0EF02D6E010E26
:1007880033EC0EF02E6E2D5003E0080E2D6401D0D0
:100798002D6A2E5003E0070E2E6401D02E6A2E50CB
:1007A8000A0DF350020F316E2D5002E12EC02DF0CC
:1007B8006E6A6F6A42D0706A716A56D8FEEC0CF0A5
:1007C80060D8040E6B26000E6C2256D870506B242D
:1007D800D96E71505BD833EC0EF0DF6E302A704A58
:1007E800712A71BEEAD7715003E1060E705CE5E329
:1007F800726A736A39D8FEEC0CF043D83DD872504F
:100808006B24D96E735042D833EC0EF0DF6E302A69
:10081800724A732A73BEEED7735003E1040E725CFA
:10082800E9E32E500A0D580EF324D96E010EF42078
:10083800DA6EDF502C6E6E4A6F2A2D506B6E6C6A22
:100848006B506E5C6F50800A6D6E6C50800A6D58EC
:10085800B2E32D50D8B41200390E2C6002D02C2AE5
:10086800390C300E2C6E300C6EC065F06FC066F01F
:10087800686A0A0E676E0A0C65506B2666506C2211
:100888001200600E6B6E010E6C6E12006C20DA6E38
:100898003050120053D02F50D8B41200010E2B6ED6
:1008A800010C2F6AA6B21200020E2B6E020C2DC08C
:1008B80065F0000E55EC0DF0F28EA694030E2B6E2B
:1008C800030CA6B21200040E2B6E040C2EC065F0A9
:1008D800010E55EC0DF0F28EA694050E2B6E050C4C
:1008E800A6B21200060E2B6E060C060E32600BD056
:1008F8002E500A0DFA0E3BD855EC0DF0F28EA69448
:10090800322A312AEAD7070E2B6E070C0A0E3260FC
:1009180007D02E500A0DF00E2AD855EC0DF0EED760
:10092800080E2B6E080C326A080E2E1805E1020E0E
:10093800316E2E6A080E2D6E2B6A12002B50676ED0
:10094800686A6850D8A412006750A5E0010AA9E0B7
:10095800030AADE0010AB5E0070AB8E0010AC0E001
:10096800030AC3E0010AD2E00F0ADDE01200676E55
:100978006868600E696E010E6A6E67506926685075
:100988006A22F3506926F4506A2232506924D96EDB
:10099800000E6A20DA6EDF50656E31501200100EBC
:1009A8007CD867D8F76403D00800F55001D069D81F
:1009B8000009D8A41200100E6AD85BD8F76403D0D7
:1009C8000800F55001D05DD80009D8A41200100E17
:1009D8003A604AD06D6A3A50E5EC06F03A500101A7
:1009E8005CD847D8F76403D00800F55001D049D83F
:1009F800000905E10101BA6B200EB96F0DD03A501C
:100A080001014BD836D8F76403D00800F55001D05F
:100A180038D80101B96FBA6BB951E3EC0AF0B9ECF7
:100A280001F0E5EC06F03A5032D823D8F76403D049
:100A38000800F55001D025D8000905E10101BC6B7B
:100A4800200EBB6F0CD03A5022D813D8F76403D0CD
:100A58000800F55001D015D80101BB6FBC6BBB5124
:100A6800E3EC0AF03A2A1200050E3B18D8B43A6AA9
:100A78001200726E71C0F6FF72C0F7FFF86A010EBD
:100A88001200F6CFE9FFF7CFEAFFEF50120001019D
:100A9800B725716E000EB8211200B525716E000ED3
:100AA800B62112009EAA1200AECF23F04B0E2318D7
:100AB80007E1455005E111EC0EF0010E286E010C1E
:100AC8004A0E231802E173EF0DF04B0E231806E1CE
:100AD800030E451803E1010E256E010C460E23187E
:100AE80003E1010E08EF0EF04F0E231807E1010E87
:100AF80008EC0EF0426A246A73EF0DF05BEC0EF01E
:100B080039D8B06F010EB16FF350B027F450B1234C
:100B18002750B025D96E000EB121DA6E23C0DFFF51
:100B2800272A030E2718D8A412005BEC0EF022D84F
:100B3800F324D96E010EF420DA6E490EDF6EB2513D
:100B48000A0D630EF324D96E010EF420DA6E000E3E
:100B5800DF6A57EC0EF05BEC0EF00101B26F070E86
:100B6800B21902E151EC0EF054EC0EF0010E246EB5
:100B7800276E010C0101B26FB2510A0D600E12000E
:100B88000101B06F71EC0CF00F6E106AB0C14FF03C
:100B980072C04EF04C6A4D6A939A939893960101ED
:100BA800B16BB26B4DD8640E6E6EE8EC0CF0030EB0
:100BB800DEEC08F045D8050E6E6EE8EC0CF0030E7E
:100BC800DEEC08F03DD8010E6E6EE8EC0CF0030E7A
:100BD800DEEC08F035D8010E6E6EE8EC0CF0020E73
:100BE800DEEC08F02DD8010E6E6EE8EC0CF0280E45
:100BF8008FEC0DF0E5EC0BF0080E8FEC0DF0E5EC4A
:100C08000BF0010E8FEC0DF01BD8030E6E6EE8ECA6
:100C18000CF0E5EC0BF0060E8FEC0DF0E5EC0BF0AC
:100C28000F0E8FEC0DF00101B14BB22BB2BFBAD74A
:100C3800B25105E1020EB15DD8B01200B3D712006F
:100C48000FC06CF010C06DF06F6A1200B76F54ECF3
:100C58000CF0E5EC06F0040E4518D8A412002A0E94
:100C68000101B71927E0230EB71924E046504DD8E3
:100C7800B6BF06D0B65148E1060EB55DD8B0120031
:100C88004650060FD96EDA6AB7C1DFFF4628716E83
:100C9800B751FFEC0DF04650010137D8020EB519D7
:100CA800B61106E1462A4628716E3A0EFFEC0DF0A1
:100CB800462A1200230EB719D8A41200465025D888
:100CC800060EB519B611D8A4120006C06BF0010EB5
:100CD8006C6E000E81EC0DF007C06BF0010E6C6EAF
:100CE80081EC0DF009C06BF0010E6C6E030E81EC07
:100CF8000DF00AC06BF0010E6C6E040E81EC0DF065
:100D0800010E08EC0EF0466A1200B56FB66BB52BF3
:100D1800000EB623000C0101B96F450414E1040E5E
:100D2800446006D0B90504E1442A11EC0EF008D05D
:100D3800445006E0020E0101B91902E14406F5D754
:100D48004450A9EF0DF0030E4518D8A4120059EC31
:100D58000EF00101B86F080EB86126D05BEC0EF0FA
:100D68000101B76FB069B169B751B26FB36BB051D8
:100D7800B227B151B3234350B46FB56BB251B45DD0
:100D8800B551800AB66FB351800AB65906E2B90563
:100D980004E1432A11EC0EF011D043500FE0020E8B
:100DA800B9190CE14306F6D7070E436002D0B9051E
:100DB800F0E0435003E0020EB919F4E04350A9EF04
:100DC8000DF00101B46F2ED06D5005E00101B16B3B
:100DD800400EB06F03D00101B06BB16BB451B025B8
:100DE800B26F000EB121B36F2AD035D86D0402E17D
:100DF800400E04D0020E6D1804E14E50B227000ECA
:100E08000DD0030E6D181BE14E506E6E6F6A400ECA
:100E18006E26000E6F226E50B2276F50B3230FD08C
:100E28001AD80DD04F506E6E6F6A6F50F9E16E5040
:100E3800010AF6E0030AC8E0060AD7E0F1D7E5ECB4
:100E48000BF00101B25180098FEC0DF06DC04DF02F
:100E5800B4C14CF01200B4C1B2F10101B36B12007D
:100E680037D0010E666E676E686E696E000E81EC93
:100E78000BF0146E1200000E666E010E676E020E05
:100E8800686E696E010E81EC0BF0146E1200010E93
:100E9800666E000E676E686E030E696E010E81EC59
:100EA8000BF0146E1200155057EC0CF0E80E655C50
:100EB800030E6658D8A01200040E146E15501AEFCF
:100EC8000EF0135017E08BEC09F01CEC00F012D078
:100ED80014500101BB6FBC6BBC51D8A41200BB51AC
:100EE800C0E0010AC8E0030AD2E0010ADCE0070A10
:100EF800E8E01200136A146A1200686E2AD0540ED1
:100F08003CD80001E56F655033D8E66F65503BD893
:100F1800E76FE86BFCEF0DF0440E2FD8506E65506C
:100F280027D8516E3A0E526E6550D96EDA6A030EA2
:100F3800D926DF50536E6550D96EDA6A040ED92669
:100F4800DF50546E556AFCEF0DF0500E296EFCEF21
:100F58000DF06850666E676A675002E0FCEF0DF0AE
:100F68006650CDE0010AD8E0030AEFE0FCEF0DF08F
:100F7800D96EDA6AD92ADF501200296E6550D96E07
:100F8800DA6ADF501200D96EDA6A020ED926DF500B
:100F9800120018501EE112003DD857EC0CF06C50AE
:100FA800655C6D5066581EE31D501AEC0EF0898A78
:100FB800010E166E17D02ED857EC0CF06C50655CED
:100FC8006D5066580FE31D501AEC0EF0899A166A98
:100FD80009D016506C6E6D6A6D5004E16C50DCE0FF
:100FE800010AE9E01C5057EC0CF01AD805E31C5034
:100FF8001AEC0EF0020E1A261B5057EC0CF0200EBD
:10100800655C4E0E6658D8A012001B501AEC0EF004
:10101800186A1200D8901A306C6E6D6A1D50120052
:10102800A00E655C0F0E66581200B76F0101B6512D
:101038009DEC0DF02A0E0101B7190CE1455002E1B3
:101048003CEF0CF0020E4564020C010E08EC0EF0A9
:10105800466A1200230EB7191EE1030EB51903E004
:10106800040EB5190DE145500BE1560E656E000EE4
:1010780081EC07F0560E656E37EC0DF0A4EF0BF01F
:10108800450402E1BFEF09F0030E4518D8A4120089
:101098004350F6EF0DF04550D8A41200040EB56188
:1010A800040CB5C165F0B7512BEC0EF0B5C171F069
:1010B8000101B751FFEF0DF019501EE1120030D8B1
:1010C80057EC0CF06C50655C6D5066581EE31D5073
:1010D8001AEC0EF0898A010E176E17D021D857EC3A
:1010E8000CF06C50655C6D5066580FE31D501AEC9F
:1010F8000EF0899A176A09D017506C6E6D6A6D5098
:1011080004E16C50DCE0010AE9E01C5057EC0CF0FB
:101118000DD8D8A012001C501AEC0EF0196A120053
:10112800D8901A306C6E6D6A1D501200900E655C76
:10113800010E6658120031D0C290C30EC216C2808A
:101148004B5057EC0CF09AEC08F0D8A01200C28271
:10115800010E486E010CC2B2FBD7C290780EC4646F
:101168000AD0820EC46007D0495005E049508FEC80
:1011780006F0496A0AD0C80EC46402D0010E04D031
:10118800320EC46002D0020E496E020E486E020C86
:101198004B501AEC0EF0486A12004850726E736A8F
:1011A8007350D8A412007250C7E0010AD4E0030AB1
:1011B800EFE01200666E94962FD88A8A66A603D04E
:1011C800656A652A01D0656A8B506518FE0B65183B
:1011D8008B6E66A403D0656A652A01D0656A654688
:1011E8008B506518FD0B65188B6E66A203D0656A77
:1011F800652A01D0656A17D8FB0B65188B6E66A047
:1012080003D0656A652A01D0656A65460CD8F70B74
:1012180065188B6E8A9A12009494949294908A9688
:101228008A988A8A1200654665468B5065181200AE
:10123800F294060ED66E0D4A0E2A300E0D5C750E0F
:101248000E58D8A012000B6A0C6A0CBE05D00C50C0
:101258001EE1200E0B5C1BE21DD824EC0DF0020EE3
:101268005A24D96E010E5B20DA6EDE040DE112D825
:1012780024EC0DF0000E5A24D96E010E5B20DA6EB4
:101288000D50DE5E0E50DD5A0B4A0C2ADED70D6A71
:101298000E6A12000BC05AF00CC05BF05D6A030EB8
:1012A8005C6E030C3F5023E11200405057EC0CF0E9
:1012B80014EC08F0D8A0120040501AEC0EF08AEC9A
:1012C8000CF0010E3E6E010C360E04180EE1300EC5
:1012D80005180BE117D89EEC0CF081EC0DF09AEC98
:1012E8000CF081EC0DF0A2EC0CF03E6A12003E50BE
:1012F8006E6E6F6A6F50D8A412006E50D6E0010A65
:10130800E3E01200300E056E05C004F0300C1250F8
:10131800656E666A653A663AF00E661665500F0B9A
:101328006612F00E6516115065126650D8A4230C8B
:101338006550110AD8B4310C030AD8B4320C010A2A
:10134800D8B4330C320AD8B4340C030AD8B4350CE8
:10135800010AD8B4360C120AD8B4370C030AD8B428
:10136800380C010AD8B4390C720AD8B42A0C030A0A
:10137800D8B4300C230C21D0500E656E010E81ECD0
:1013880007F0010E426E4EEC0EF0020E08EC0EF065
:101398004BEF0EF0436A030E08EF0EF0040E08EF51
:1013A8000EF0050E08EF0EF0060E08EC0EF046ECF7
:1013B8000DF0BAEC0CF05EEF0BF04450B06FB16B6F
:1013C800B151D8A41200B051D7E0010AE3E0030AF2
:1013D800E5E0010AE6E0070AE7E01200666E66A6A5
:1013E80003D0656A652A01D0656A8B506518FE0BC3
:1013F80065188B6E66A403D0656A652A01D0656A94
:1014080065468B506518FD0B65188B6E66A203D078
:10141800656A652A01D0656A0FD8FB0B65188B6E63
:1014280066A003D0656A652A01D0656A654604D856
:10143800F70B65188B6E1200654665468B5065186C
:101448001200666E66AE03D0656A652A01D0656AC9
:101458008B506518FE0B65188B6E66AC03D0656AF9
:10146800652A01D0656A65468B506518FD0B6518BD
:101478008B6E66AA03D0656A652A01D0656A0FD8A3
:10148800FB0B65188B6E66A803D0656A652A01D0C8
:10149800656A654604D8F70B65188B6E12006546B9
:1014A80065468B50651812003131313130203020BB
:1014B80062796520627965202020202100000000E3
:1014C80000000000000000444F2041205245434FD7
:1014D8005244210000000000000000000000454DBB
:1014E800505459205245434F5244494E47530000E7
:1014F80000000000000000000000000000000000E4
:10150800000000000000000000000000F28CF28ED5
:1015180020EC0CF0100E726E020EC4EC05F0B9EC63
:1015280003F0C5EC0BF0B5EC0DF046EC0DF0C1EC9A
:101538000DF011EC0DF0BAEC0CF05EEC0BF0BDEC1C
:1015480001F034EC07F060EC08F085EC02F09FEC59
:1015580008F056EC05F056EC09F0CDEC07F04EEC2F
:1015680004F036EC0BF0EBD76D6E230E6D18D8B483
:1015780012002A0E6D18D8B412006C506D181CE1B8
:10158800215057EC0CF0A10E655C0F0E665814E262
:10159800370E6D1803E0390E6D1807E1040E656EFD
:1015A8001E5023EC0EF01E6E1200030E656E1E50C8
:1015B80023EC0EF01E6E1200202A1E6A1200706EB6
:1015C800E5EC0BF0705004EC0CF04C2A030E4F18AD
:1015D80007E1130E4C64130C4C6A4D2A030E09D014
:1015E800020E4F180AE1270E4C64270C4C6A4D2A4C
:1015F800010E4D6409D04D6A07D04D04D8A41200DD
:10160800270E4C6401D04C6A4DC06DF04C50E5EF8C
:1016180006F0B00EF66E140EF76E000EF86E00EEC1
:1016280080F010EE64F00900F5CFEEFFE550E150D0
:10163800FAE101EE00F0B00EEE6AE806FDE100EE18
:10164800E4F01C0EEE6AE806FDE100EE01F0590E2A
:10165800EE6AE806FDE174907492000EF86E0001DF
:101668008AEF0AF01CD0C290C250C30B0409C26EA4
:10167800C2804A5057EC0CF065506610D8B412007E
:10168800C282010E476E010CC2B21200C290C45051
:101698003BEC0EF04A501AEC0EF0476A1200475025
:1016A8006C6E6D6A6D50D8A412006C50DCE0010AB3
:1016B800EBE01200948C948E260EAC6E900EAB6EFE
:1016C800B886440EAF6EB06A0CD8256A426A246A9E
:1016D800266A286A456A466A296A2A6A010E276EB6
:1016E800010C3A0E526E300E546E54C053F053C073
:1016F80051F051C050F0556A12006A6E13501CE147
:101708008350780B780A14E16AB002D08C9001D02B
:101718008C8066B002D08C9201D08C8267B002D0E7
:101728008C9401D08C8469C011F068C014F006D084
:10173800D1EC0CF0030E01D0040E146E14501200FC
:1017480071EC0CF0406E40501AEC0EF03A0E036E3D
:1017580086EC09F004C002F002C001F09EEC0CF027
:1017680081EC0DF09AEC0CF081EC0DF0B6EC0CF07D
:1017780081EC0DF0B2EC0CF081EC0DF0010E3F6E37
:10178800010C71EC0CF03D6E3D501AEC0EF071EC52
:101798000CF03C6E3C501AEC0EF0396A436A3B6A16
:1017A800446A3A6AB4EC03F0386A3A0E0001EB6F07
:1017B800300E79EC02F0170E376E42EC0EF011EF96
:1017C8000EF094869484948294808A968A880F5026
:1017D8001AEC0EF08A8A8A8A000E82B2010E6C6EAA
:1017E8008A9A8A9A8A8A8A8A8A9A8A9A0F5057EC97
:1017F8000CF06550661001E012006C50EBE112002D
:10180800676E94969494949294908A868A988A8A19
:10181800675025EC0AF00BD86750F2EC09F000D0BD
:101828008A8A8A9A948694849482948012008A8AF6
:101838008A9A8A9A8A8A1200656A655082EC0CF044
:10184800DF6A652A1F0E6564F8D70D6A0E6AD38CA5
:10185800D38AD398D58CD59AD596D550F80B01094B
:10186800D56E060ED66ED58EF294F28A9B8C060C37
:1018780017D8E5EC06F0200EE3EC0AF0010E6D6EC9
:10188800E5EC06F0200EE3EC0AF0010E6D6E020E98
:10189800E5EC06F0200EE3EC0AF002D8E5EF06F0DE
:1018A800010E6D6E000C696E0DC06AF00EC06BF013
:1018B80069500BD8DECF67F0DDCF68F067506A5CFF
:1018C800656E68506B58666E1200030D000EF324A7
:1018D800D96E010EF420DA6E1200666A05D0662A07
:1018E800200E661801E1FF0C665008D8DE04F7E008
:1018F800665004D8010EDF6E66501200030D020E0A
:10190800F324D96E010EF420DA6E1200390E056048
:1019180004D0052A0BD881EF0DF0300E056E042A8D
:1019280005D881EC0DF006D881EF0DF005C06BF0FD
:101938006C6A040C04C06BF06C6A030C390E02600C
:1019480004D0022A0BD881EF0DF0300E026E012A66
:1019580005D881EC0DF006D881EF0DF002C06BF0D0
:101968006C6A010C01C06BF06C6A000C71EC0CF035
:101978001D6E1D501AEC0EF071EC0CF01C6E1C5014
:101988001AEC0EF071EC0CF01B6E1B501AEC0EF0FA
:10199800929A899A186A196A120015501AEC0EF070
:1019A800010E136E83BC03D0040E126E040C83BAAE
:1019B80003D0030E126E030C83B803D0020E126E0E
:1019C800020C010E126E010C6C501AEC0EF06EC077
:1019D80070F06FC071F0D89070367136D89070364C
:1019E80071366C5057EC0CF07050655C715066584D
:1019F800EEE3120065506702F3CF69F0F4CF6AF0A6
:101A080065506802F3506A2666506702F3506A26EA
:101A180069C065F06AC066F0120071EC0CF04B6E9C
:101A28004B501AEC0EF071EC0CF04A6E4A501AEC5E
:101A38000EF0496A928092820D0EC16EC06A120041
:101A48005A505C02F3CF5EF0F4CF5FF05A505D025B
:101A5800F3505F265B505C02F3505F265EC05AF07D
:101A68005FC05BF012006550D96EDA6ADF50000182
:101A7800906F6550BCEC07F0916F6550C7EC07F0AC
:101A8800926F1200426A436A446A456A466A75EC74
:101A98000BF059EC0EF0416E4150D8A44BEC0EF00F
:101AA8001200666E66C0A9FF65C0A8FFA69EA69C28
:101AB800A684F29E550EA76EAA0EA76EA682AA0C41
:101AC8006A6E6A50E90FD96EDA6A68C0DFFF69503A
:101AD800D8B4120068C066F06A50CCEF0DF0050E5D
:101AE8001A6E1D501AEC0EF01C501AEC0EF01B501A
:101AF8001AEC0EF0010E186E010C6D6E6D50500F41
:101B0800D96EDA6A6BC0DFFF6BC068F06CC069F031
:101B18006D5064EF0DF0676E949610EC09F0675005
:101B280025EC0AF01BEC0CF06750F2EC09F014EF0E
:101B38000CF0666E1D501AEC0EF01C501AEC0EF0EC
:101B480066C01AF0010E196E010C656E3B0403E1C4
:101B580065C044F01200030E3B18D8B465C043F0CA
:101B6800120071EC0CF0156E15501AEC0EF0780E90
:101B7800956E116A126A7EEF07F071EC0CF0216E17
:101B880021501AEC0EF0206A0A0E1F6E1E6A12000F
:101B9800676E40501AEC0EF06750010FD96EDA6A82
:101BA80066C0DFFF1200E5EC0BF0010E8FEC0DF0C4
:101BB80024EC06F0030E6E6EE8EF0CF0726E11EC7A
:101BC8000EF0436A3C501AEC0EF072C03BF0120063
:101BD800656E2450D8B41200530E296E65C026F0E5
:101BE800FCEF0DF0656E500E296E65C026F000D032
:101BF800010E2A6E010C726E010E6D6E7104E5EC19
:101C080006F07250E3EF0AF0736E73C045F073503C
:101C1800E2EC0DF0735047EF0EF0D7EC0DF0B4EC9A
:101C280003F0386A3A6A170E376E170C656E6550FE
:101C380069EC0CF00DC0DEFF0EC0DDFF1200666E11
:101C4800651802E1666A01D0662A66501200666E5F
:101C58006550550FD96EDA6A66C0DFFF1200656EEF
:101C680065C0A9FFA69EA69CA680A8501200666E15
:101C78004250D8B412006650ECEF0DF0E5EC0BF0D2
:101C88000E0E8FEF0DF0656E65C045F01200010E67
:101C9800396E010C010E426E010C080E2D6E080CF7
:101CA800010E2F6E010C2E2A12002D5012002E50FC
:021CB800120018
:101EEC00005758595A395051525337545556384D4A
:101EFC004E4F364A4B4C354748493444454633419E
:101F0C0042433243555252454E542054494D453A62
:101F1C00000000000000000000004D4F44494659ED
:101F2C002054494D453A000000000000000000001C
:101F3C00005245434F5244494E472E2E2E0000006E
:101F4C000000000000000000202020202020202085
:101F5C002020202020202020202020202020003580
:101F6C002E20454E4420434F4D554E494341544934
:101F7C004F4E20202000342E2053484F57204355DD
:101F8C005252454E542054494D45202000332E20AA
:101F9C004D4F444946592043555252454E542054B6
:101FAC00494D4500322E20504C4159205245434F4B
:101FBC005244494E47532020202000312E205354A8
:101FCC00415254205245434F5244494E4720202001
:101FDC002000504F5254204E414D453A0000000015
:101FEC000000000000000000002020202020202005
:031FFC00200000C2
:020000040020DA
:08000000FFFFFFFFFFFFFFFF00
:020000040030CA
:0E000000FF08191EFF0181FF03C003E003404B
:00000001FF
